:100000000C946C000C9494000C9494000C94940048
:100010000C9494000C9494000C9494000C94940010
:100020000C9494000C9494000C9494000C94940000
:100030000C9494000C9494000C9494000C949400F0
:100040000C9481040C9494000C944F040C94290497
:100050000C9494000C9494000C9494000C949400D0
:100060000C9494000C949400960298029B029D02BA
:100070009F02A102A302A502A702A902000000009C
:10008000240027002A0000000000250028002B0083
:1000900000000000230026002900040404040404D6
:1000A0000404020202020202030303030303010227
:1000B00004081020408001020408102001020408F6
:1000C00010200000000800020100000304070000E7
:1000D000000000000000090711241FBECFEFD8E088
:1000E000DEBFCDBF11E0A0E0B1E0E2EAFEE002C079
:1000F00005900D92AE37B107D9F722E0AEE7B1E037
:1001000001C01D92A33AB207E1F710E0CCE6D0E0BF
:1001100004C02197FE010E943607CB36D107C9F7EC
:100120000E94CB040C944F070C940000CF92DF92F6
:10013000EF92FF920F931F93CF93DF936C017A019D
:100140008B01C0E0D0E0CE15DF0589F0D8016D91BC
:100150008D01D601ED91FC910190F081E02DC60159
:100160000995892B11F47E0102C02196ECCFC701BD
:10017000DF91CF911F910F91FF90EF90DF90CF9083
:100180000895089580E090E00895FC01538D448D1A
:10019000252F30E0842F90E0821B930B541710F032
:1001A000CF96089501970895FC01918D828D98173F
:1001B00061F0828DDF01A80FB11D5D968C91928D4B
:1001C0009F5F9F73928F90E008958FEF9FEF089548
:1001D000FC01918D828D981731F0828DE80FF11D11
:1001E000858D90E008958FEF9FEF0895FC01918D2C
:1001F000228D892F90E0805C9F4F821B91098F7325
:100200009927089586E092E00E94F60021E0892B6C
:1002100009F420E0822F0895FC01848DDF01A80FEE
:10022000B11DA35ABF4F2C91848D90E001968F731E
:100230009927848FA689B7892C93A089B1898C913D
:1002400080648C93938D848D981306C00288F38903
:10025000E02D80818F7D80830895EF92FF920F9330
:100260001F93CF93DF93EC0181E0888F9B8D8C8D62
:10027000981305C0E889F989808185FD24C0F62E90
:100280000B8D10E00F5F1F4F0F731127E02E8C8D29
:10029000E8120CC00FB607FCFACFE889F989808113
:1002A00085FFF5CFCE010E940C01F1CF8B8DFE01B1
:1002B000E80FF11DE35AFF4FF0820B8FEA89FB89AB
:1002C0008081806207C0EE89FF896083E889F989AF
:1002D00080818064808381E090E0DF91CF911F91E5
:1002E0000F91FF90EF900895CF93DF93EC01888DED
:1002F0008823C9F0EA89FB89808185FD05C0A8892A
:10030000B9898C9186FD0FC00FB607FCF5CF8081AF
:1003100085FFF2CFA889B9898C9185FFEDCFCE01F9
:100320000E940C01E7CFDF91CF91089580E090E02B
:10033000892B29F00E94020181110C94000008957C
:10034000833081F028F4813099F08230A1F0089553
:100350008730A9F08830B9F08430D1F480918000E2
:100360008F7D03C0809180008F77809380000895F7
:1003700084B58F7702C084B58F7D84BD0895809148
:10038000B0008F7703C08091B0008F7D8093B00064
:100390000895CF93DF93282F30E0F901EE53FF4FFC
:1003A0008491F901E255FF4FD491F901E656FF4FD0
:1003B000C491CC2391F081110E94A001EC2FF0E0B8
:1003C000EE0FFF1FE057FF4FA591B491EC91ED2385
:1003D00081E090E021F480E002C080E090E0DF91D5
:1003E000CF9108951F93CF93DF93282F30E0F90129
:1003F000EE53FF4F8491F901E255FF4FD491F9017B
:10040000E656FF4FC491CC23C9F0162F81110E94EC
:10041000A001EC2FF0E0EE0FFF1FEA57FF4FA59170
:10042000B4918FB7F894111105C09C91ED2FE09510
:10043000E92302C0EC91ED2BEC938FBFDF91CF91BC
:100440001F910895CF93DF9390E0FC01E255FF4F99
:100450002491FC01E656FF4F8491882361F190E0DE
:10046000880F991FFC01E458FF4FC591D491FC01FE
:10047000EA57FF4FA591B491611109C09FB7F89455
:100480008881209582238883EC912E230BC06230D3
:1004900061F49FB7F8943881822F809583238883F5
:1004A000EC912E2B2C939FBF06C08FB7F894E88158
:1004B0002E2B28838FBFDF91CF9108953FB7F894FB
:1004C0008091020290910302A0910402B091050272
:1004D00026B5A89B05C02F3F19F00196A11DB11D9F
:1004E0003FBFBA2FA92F982F8827820F911DA11DDA
:1004F000B11DBC01CD0142E0660F771F881F991F17
:100500004A95D1F70895CF93DF93DB01EC01E881A1
:100510004E2FEE0F550B660B770BFA01F097EA3072
:10052000F105D8F4EC5CFF4F0C9436071C9213C015
:1005300081E08C9313C082E00DC083E00BC084E0A7
:1005400009C085E007C086E005C087E003C088E0F9
:1005500001C089E08C9381E001C080E0DF91CF9100
:10056000089583E592E00197F1F708950F931F93A3
:10057000CF93DF93082FCCE0D1E01C2F185F602FC2
:1005800089910E9422021C13FACFDF91CF911F9113
:100590000F9108958031910528F4FC01EC5FFE4F26
:1005A000808101C08FEF0E94C90121E0892B09F0F1
:1005B00020E0822F0895EF92FF920F931F93CF9325
:1005C000DF937C01CFEFDFEF0BE811E0C7010E9462
:1005D000CA02882339F0F8013197F1F72197B1F772
:1005E00080E001C081E0DF91CF911F910F91FF90DA
:1005F000EF9008958031910528F4FC01EC5FFE4FE7
:10060000808101C08FEF62E00C942202CF93803191
:10061000910528F4FC01EC5FFE4FC08101C0CFEFD3
:1006200061E08C2F0E94220260E08C2FCF910C940D
:10063000F201AF92BF92CF92DF92EF92FF920F93AF
:100640001F93CF93DF937C016B0181E090E00E94C8
:10065000CA02882361F182E090E00E94CA028823E6
:1006600031F184E090E00E94CA02882331F084E0F6
:1006700090E00E94FA020E94B10281E090E00E94A4
:10068000FA02CFEFDFEF9BE8A92EBB24B39480E002
:1006900090E00E94CA02082F811114C0C501019781
:1006A000F1F70E94B102219791F700E04BC081E081
:1006B00090E00E94060382E090E00E9406030E9400
:1006C000B102CFCF82E00E94B602C0E0D0E010E0DD
:1006D000AA24A394B12CFE01EC5FFE4F80850E94FA
:1006E000C901892B49F095010C2E01C0220F0A94F3
:1006F000EAF72095122307C0C5010C2E01C0880F10
:100700000A94EAF7182B2196C830D10521F7F70192
:10071000108387E090E00E94CA02F601808382E0A5
:1007200090E00E94FA020E94B10280E090E00E94F4
:10073000DB02882309F4B9CF82E090E00E9406032F
:100740000E94B102802FDF91CF911F910F91FF90F6
:10075000EF90DF90CF90BF90AF9008950F931F93CD
:10076000CF93DF93082F81E090E00E94DB0281119C
:1007700002C080E033C081E00E94B6020095C0E074
:10078000D0E010E0B8010C2E02C0759567950A9470
:10079000E2F76170FE01EC5FFE4F80850E94F2017E
:1007A0002196C830D10571F70E94B10280E090E037
:1007B0000E9406030E94B10282E090E00E94DB02E8
:1007C0008823B9F280E090E00E94FA020E94B10210
:1007D00082E00E94B6020E94B10281E0DF91CF91D7
:1007E0001F910F910895CF93C82F86E090E00E944B
:1007F00006030E94B10284E090E00E9406030E947A
:10080000B1028FE30E94AE038FE50E94AE0385E341
:100810000E94AE0380E48C0F0E94AE0384E090E05F
:100820000E94FA02CF910C94B102009769F0FC018A
:1008300001900020E9F73197AF01481B590BBC012B
:1008400086E092E00C94960080E090E008950E948B
:100850003C071F920F920FB60F9211242F933F93D4
:100860004F935F936F937F938F939F93AF93BF93B8
:10087000EF93FF9386E092E00E940C01FF91EF91CD
:10088000BF91AF919F918F917F916F915F914F91A8
:100890003F912F910F900FBE0F901F9018951F92B0
:1008A0000F920FB60F9211242F938F939F93EF9374
:1008B000FF93E0911602F09117028081E0911C02F3
:1008C000F0911D0282FD12C0908180911F028F5F06
:1008D0008F7320912002821751F0E0911F02F0E007
:1008E000EA5FFD4F958F80931F0201C08081FF91C9
:1008F000EF919F918F912F910F900FBE0F901F90AE
:1009000018951F920F920FB60F9211242F933F93B9
:100910008F939F93AF93BF938091FE019091FF01BE
:10092000A0910002B09101023091FD0123E0230F5C
:100930002D3720F40196A11DB11D05C026E8230F17
:100940000296A11DB11D2093FD018093FE0190939D
:10095000FF01A0930002B0930102809102029091E6
:100960000302A0910402B09105020196A11DB11DE0
:100970008093020290930302A0930402B0930502B5
:10098000BF91AF919F918F913F912F910F900FBE8B
:100990000F901F901895CF93DF9300D0CDB7DEB79F
:1009A000789484B5826084BD84B5816084BD85B54A
:1009B000826085BD85B5816085BD80916E00816056
:1009C00080936E00109281008091810082608093FC
:1009D00081008091810081608093810080918000FE
:1009E0008160809380008091B10084608093B10029
:1009F0008091B00081608093B00080917A00846023
:100A000080937A0080917A00826080937A0080914E
:100A10007A00816080937A0080917A008068809368
:100A20007A001092C100E0911602F091170282E064
:100A30008083E0911202F09113021082E09114027F
:100A4000F09115028FEC808310921E02E0911A0241
:100A5000F0911B0286E08083E0911802F091190268
:100A6000808180618083E0911802F0911902808179
:100A700088608083E0911802F0911902808180687B
:100A80008083E0911802F091190280818F7D80832C
:100A900061E08DE00E94220261E08DE00E94F2019F
:100AA0000E945E024B015C0184E6C82ED12CE12C31
:100AB000F12C0E945E02DC01CB0188199909AA0978
:100AC000BB09883E9340A105B10558F021E0C21A48
:100AD000D108E108F10838EE830E33E0931EA11C23
:100AE000B11CC114D104E104F10419F760E08DE0F8
:100AF0000E94F20184E090E00E94FA0283E090E01C
:100B00000E94FA0285E090E00E94FA0286E090E0FE
:100B10000E94FA0287E090E00E94FA0280E090E0F2
:100B20000E94FA0282E090E00E94FA0281E090E0E6
:100B30000E94FA0282E00E94B6020E94B102009175
:100B4000020110910301E12CF12C86E092E00E9459
:100B5000F600892BD1F386E092E00E94D400F801E0
:100B600080838D3029F08A3019F08C3709F03DC12F
:100B7000EE2059F3F8011082009102011091030157
:100B800042E050E06BE771E0C8010E944107892B09
:100B900009F0CFC047E050E068E571E0C8010E946D
:100BA0004107892B51F048E050E060E671E0C80150
:100BB0000E944107892B79F172C0C8010796FC0198
:100BC00001900020E9F73197E81BF90BE130F105BE
:100BD00029F460E071E00E9483021AC0329719F78D
:100BE000BE016E5F7F4F0E9483028823E1F2BE0147
:100BF0006F5F7F4FC80108960E948302882399F295
:100C00002A8199813AE0239F900D1124909300014D
:100C10008111E1C0C8CF8091000187FD40C00E94D2
:100C2000F3038DB69EB62DB73EB7205831090FB6E7
:100C3000F8943EBF0FBE2DBF8DB79EB701966C01D5
:100C4000E12CF12C5701BE016F5F7F4FC6018E0D65
:100C50009F1D0E941903782E882331F09FEFE91A17
:100C6000F90A8981882329F0F601EA0DFB1D11821A
:100C700004C0EFE7EE16F10429F7C6010E9415043F
:100C8000711006C00FB6F8949EBE0FBE8DBE07C091
:100C900019820FB6F8949EBE0FBE8DBEC2CFADB600
:100CA000BEB646E050E069E671E0C8010E94410727
:100CB000892BA9F58091000187FD31C00E94F303C3
:100CC0002DB73EB7205831090FB6F8943EBF0FBE7E
:100CD0002DBF8DB79EB701966C01E12CF12C470119
:100CE000BE016F5F7F4FC6018E0D9F1D0E941903CD
:100CF000182F882331F09FEFE91AF90A8981882398
:100D000029F0F601E80DF91D118204C0EFE7EE1697
:100D1000F10429F7C6010E941504812F01C080E06B
:100D20000FB6F894BEBE0FBEADBE882309F456C000
:100D300052C0F0900001F7FC51C086E090E00E94A4
:100D400006030E94B10284E090E00E9406030E9424
:100D5000B1028FE30E94AE038FE50E94AE0380E2F2
:100D60008F0D0E94AE0385E50E94AE0384E090E003
:100D70000E94FA020E94B102F80101900020E9F7F6
:100D800031977F01E01AF10AC12CD12C5701F1E013
:100D9000AF1AB108CE14DF04F1F0F801CA14DB0475
:100DA00089F4908087E090E00E940603892D0E94DC
:100DB000AE03882351F087E090E00E94FA020E947F
:100DC000B10203C080810E94AE03FFEFCF1ADF0A99
:100DD0000F5F1F4FDFCF80E791E002C084E791E013
:100DE0000E9415040E949601AACEF3942F2D30E0A4
:100DF0008091010190E001972817390729F4F80143
:100E0000108286E291E0ECCF0F5F1F4FEE24E39457
:100E10009CCEE6E0F2E01382128288EE93E0A0E03E
:100E2000B0E084839583A683B78388E191E09183C2
:100E3000808385EC90E09587848784EC90E09787A9
:100E4000868780EC90E0918B808B81EC90E0938B97
:100E5000828B82EC90E0958B848B86EC90E0978B74
:100E6000868B118E128E138E148E0895EE0FFF1F37
:100E70000590F491E02D099481E090E0F8940C94B1
:100E80004F07FB01DC014150504030F08D91019043
:100E9000801919F40020B9F7881B990B0895F8946C
:020EA000FFCF82
:100EA200FF7F7E010E0F10111312030408070605BF
:100EB200090A0B0C000000002D019600C500740108
:100EC200F600D400E8004572726F723A20627566CD
:100ED2006665722066696C6C656420757020626557
:100EE200666F72652073656E74696E656C207265DB
:100EF20061636865642E0A002B2B616464722000B2
:100F02002B2B73747265616D002B2B72656164000B
:0E0F12006F6B0A006572726F720A002B2B0063
:00000001FF
